{
  "contractName": "Company",
  "abi": [
    {
      "inputs": [
        {
          "name": "companyUri",
          "type": "string"
        }
      ],
      "payable": false,
      "stateMutability": "nonpayable",
      "type": "constructor"
    },
    {
      "payable": true,
      "stateMutability": "payable",
      "type": "fallback"
    },
    {
      "constant": false,
      "inputs": [
        {
          "name": "",
          "type": "address"
        },
        {
          "name": "",
          "type": "uint256"
        },
        {
          "name": "",
          "type": "bytes"
        }
      ],
      "name": "onERC721Received",
      "outputs": [
        {
          "name": "",
          "type": "bytes4"
        }
      ],
      "payable": false,
      "stateMutability": "nonpayable",
      "type": "function"
    },
    {
      "constant": false,
      "inputs": [],
      "name": "kill",
      "outputs": [],
      "payable": false,
      "stateMutability": "nonpayable",
      "type": "function"
    },
    {
      "constant": false,
      "inputs": [
        {
          "name": "user",
          "type": "address"
        }
      ],
      "name": "registerUser",
      "outputs": [],
      "payable": false,
      "stateMutability": "nonpayable",
      "type": "function"
    }
  ],
  "bytecode": "0x608060405234801561001057600080fd5b50604051610437380380610437833981018060405281019080805182019291905050508060049080519060200190610049929190610091565b5033600260006101000a81548173ffffffffffffffffffffffffffffffffffffffff021916908373ffffffffffffffffffffffffffffffffffffffff16021790555050610136565b828054600181600116156101000203166002900490600052602060002090601f016020900481019282601f106100d257805160ff1916838001178555610100565b82800160010185558215610100579182015b828111156100ff5782518255916020019190600101906100e4565b5b50905061010d9190610111565b5090565b61013391905b8082111561012f576000816000905550600101610117565b5090565b90565b6102f2806101456000396000f300608060405260043610610057576000357c0100000000000000000000000000000000000000000000000000000000900463ffffffff1680632199d5cd1461005c57806341c0e1b51461009f578063f0b9e5ba146100b6575b600080fd5b34801561006857600080fd5b5061009d600480360381019080803573ffffffffffffffffffffffffffffffffffffffff16906020019092919050505061019b565b005b3480156100ab57600080fd5b506100b4610204565b005b3480156100c257600080fd5b50610147600480360381019080803573ffffffffffffffffffffffffffffffffffffffff16906020019092919080359060200190929190803590602001908201803590602001908080601f0160208091040260200160405190810160405280939291908181526020018383808284378201915050505050509192919290505050610297565b60405180827bffffffffffffffffffffffffffffffffffffffffffffffffffffffff19167bffffffffffffffffffffffffffffffffffffffffffffffffffffffff1916815260200191505060405180910390f35b60038190806001815401808255809150509060018203906000526020600020016000909192909190916101000a81548173ffffffffffffffffffffffffffffffffffffffff021916908373ffffffffffffffffffffffffffffffffffffffff1602179055505050565b600260009054906101000a900473ffffffffffffffffffffffffffffffffffffffff1673ffffffffffffffffffffffffffffffffffffffff163373ffffffffffffffffffffffffffffffffffffffff16141561029557600260009054906101000a900473ffffffffffffffffffffffffffffffffffffffff1673ffffffffffffffffffffffffffffffffffffffff16ff5b565b600063f0b9e5ba7c010000000000000000000000000000000000000000000000000000000002905093925050505600a165627a7a72305820fe20f089ac49b0a2b0d593c890b12e9bd0c331c96ab46dc030c9055e16b8d9e00029",
  "source": "pragma solidity ^0.4.23;\r\n\r\nimport \"../node_modules/zeppelin-solidity/contracts/token/ERC721/ERC721Receiver.sol\";\r\n\r\ncontract Company is ERC721Receiver {\r\n\r\n    mapping(address => uint) _clients;\r\n    mapping(string => uint) _licenseTokens;\r\n    address _owner;\r\n    address[] _users;\r\n    string _companyUri;\r\n    \r\n    function onERC721Received(address, uint256, bytes) public returns(bytes4) {\r\n        return ERC721_RECEIVED;\r\n    }\r\n\r\n    constructor (string companyUri) public ERC721Receiver()\r\n    {\r\n        _companyUri = companyUri;\r\n        _owner = msg.sender;\r\n    }\r\n\r\n    function() payable public {\r\n        revert();\r\n    }\r\n\r\n    function kill() public {\r\n        if (msg.sender == _owner) {\r\n            selfdestruct(_owner);\r\n        }\r\n    }\r\n\r\n    function registerUser(address user) public {\r\n        _users.push(user);\r\n    }\r\n\r\n}",
  "sourcePath": "C:\\Sites\\eth\\smartlicensetoken\\contracts\\Company.sol",
  "compiler": {
    "name": "solc",
    "version": "0.4.24+commit.e67f0147.Emscripten.clang"
  },
  "schemaVersion": "2.0.1",
  "updatedAt": "2018-07-17T19:09:34.989Z"
}